{"abi":[{"type":"constructor","inputs":[{"name":"defaultFeeBps","type":"uint256","internalType":"uint256"}],"stateMutability":"nonpayable"},{"type":"receive","stateMutability":"payable"},{"type":"function","name":"BPS_DENOMINATOR","inputs":[],"outputs":[{"name":"","type":"uint256","internalType":"uint256"}],"stateMutability":"view"},{"type":"function","name":"NATIVE_ETH","inputs":[],"outputs":[{"name":"","type":"address","internalType":"address"}],"stateMutability":"view"},{"type":"function","name":"VERSION","inputs":[],"outputs":[{"name":"","type":"string","internalType":"string"}],"stateMutability":"view"},{"type":"function","name":"acceptOwnership","inputs":[],"outputs":[],"stateMutability":"nonpayable"},{"type":"function","name":"acknowledgeInvoice","inputs":[{"name":"invoiceId","type":"uint256","internalType":"uint256"}],"outputs":[],"stateMutability":"nonpayable"},{"type":"function","name":"addEmployee","inputs":[{"name":"employee","type":"address","internalType":"address"}],"outputs":[],"stateMutability":"nonpayable"},{"type":"function","name":"addSupportedToken","inputs":[{"name":"token","type":"address","internalType":"address"},{"name":"decimals","type":"uint8","internalType":"uint8"}],"outputs":[],"stateMutability":"nonpayable"},{"type":"function","name":"adminRefundToPayer","inputs":[{"name":"invoiceId","type":"uint256","internalType":"uint256"},{"name":"refundAmount","type":"uint256","internalType":"uint256"}],"outputs":[],"stateMutability":"nonpayable"},{"type":"function","name":"adminReleaseToMerchant","inputs":[{"name":"invoiceId","type":"uint256","internalType":"uint256"}],"outputs":[],"stateMutability":"nonpayable"},{"type":"function","name":"approveFamilySender","inputs":[{"name":"sender","type":"address","internalType":"address"},{"name":"approved","type":"bool","internalType":"bool"}],"outputs":[],"stateMutability":"nonpayable"},{"type":"function","name":"approveRecurring","inputs":[{"name":"merchant","type":"address","internalType":"address"},{"name":"token","type":"address","internalType":"address"},{"name":"maxPerCycle","type":"uint256","internalType":"uint256"},{"name":"totalLimit","type":"uint256","internalType":"uint256"}],"outputs":[],"stateMutability":"nonpayable"},{"type":"function","name":"balanceOf","inputs":[{"name":"user","type":"address","internalType":"address"},{"name":"token","type":"address","internalType":"address"}],"outputs":[{"name":"","type":"uint256","internalType":"uint256"}],"stateMutability":"view"},{"type":"function","name":"canWithdrawExternal","inputs":[{"name":"user","type":"address","internalType":"address"}],"outputs":[{"name":"","type":"bool","internalType":"bool"}],"stateMutability":"view"},{"type":"function","name":"cancelInvoice","inputs":[{"name":"invoiceId","type":"uint256","internalType":"uint256"},{"name":"reason","type":"string","internalType":"string"}],"outputs":[],"stateMutability":"nonpayable"},{"type":"function","name":"challengeDispute","inputs":[{"name":"invoiceId","type":"uint256","internalType":"uint256"},{"name":"evidence","type":"string","internalType":"string"}],"outputs":[],"stateMutability":"nonpayable"},{"type":"function","name":"challengeWindowDuration","inputs":[],"outputs":[{"name":"","type":"uint256","internalType":"uint256"}],"stateMutability":"view"},{"type":"function","name":"claimPayment","inputs":[{"name":"invoiceId","type":"uint256","internalType":"uint256"}],"outputs":[],"stateMutability":"nonpayable"},{"type":"function","name":"confirmCompletion","inputs":[{"name":"invoiceId","type":"uint256","internalType":"uint256"}],"outputs":[],"stateMutability":"nonpayable"},{"type":"function","name":"confirmationWindow","inputs":[],"outputs":[{"name":"","type":"uint256","internalType":"uint256"}],"stateMutability":"view"},{"type":"function","name":"createInvoice","inputs":[{"name":"payer","type":"address","internalType":"address"},{"name":"token","type":"address","internalType":"address"},{"name":"amount","type":"uint256","internalType":"uint256"},{"name":"dueDate","type":"uint256","internalType":"uint256"},{"name":"description","type":"string","internalType":"string"},{"name":"paymentType","type":"uint8","internalType":"enum CryptoPaymentPlatform.PaymentType"},{"name":"isRecurring","type":"bool","internalType":"bool"},{"name":"recurringInterval","type":"uint256","internalType":"uint256"},{"name":"maxCycles","type":"uint256","internalType":"uint256"}],"outputs":[{"name":"invoiceId","type":"uint256","internalType":"uint256"}],"stateMutability":"nonpayable"},{"type":"function","name":"defaultFeeConfig","inputs":[],"outputs":[{"name":"feeType","type":"uint8","internalType":"enum CryptoPaymentPlatform.FeeType"},{"name":"value","type":"uint256","internalType":"uint256"},{"name":"isSet","type":"bool","internalType":"bool"}],"stateMutability":"view"},{"type":"function","name":"defaultFlatFeePerToken","inputs":[{"name":"","type":"address","internalType":"address"}],"outputs":[{"name":"","type":"uint256","internalType":"uint256"}],"stateMutability":"view"},{"type":"function","name":"depositETH","inputs":[],"outputs":[],"stateMutability":"payable"},{"type":"function","name":"depositToken","inputs":[{"name":"token","type":"address","internalType":"address"},{"name":"amount","type":"uint256","internalType":"uint256"}],"outputs":[],"stateMutability":"nonpayable"},{"type":"function","name":"editInvoice","inputs":[{"name":"invoiceId","type":"uint256","internalType":"uint256"},{"name":"newAmount","type":"uint256","internalType":"uint256"},{"name":"newDueDate","type":"uint256","internalType":"uint256"},{"name":"newDescription","type":"string","internalType":"string"},{"name":"newRecurringInterval","type":"uint256","internalType":"uint256"},{"name":"newMaxCycles","type":"uint256","internalType":"uint256"}],"outputs":[],"stateMutability":"nonpayable"},{"type":"function","name":"emergencyWithdrawAll","inputs":[{"name":"users","type":"address[]","internalType":"address[]"},{"name":"tokens","type":"address[]","internalType":"address[]"},{"name":"escrowInvoiceIds","type":"uint256[]","internalType":"uint256[]"}],"outputs":[],"stateMutability":"nonpayable"},{"type":"function","name":"familyApproved","inputs":[{"name":"","type":"address","internalType":"address"},{"name":"","type":"address","internalType":"address"}],"outputs":[{"name":"","type":"bool","internalType":"bool"}],"stateMutability":"view"},{"type":"function","name":"finalizeResolution","inputs":[{"name":"invoiceId","type":"uint256","internalType":"uint256"}],"outputs":[],"stateMutability":"nonpayable"},{"type":"function","name":"freeReceiveLimit","inputs":[],"outputs":[{"name":"","type":"uint256","internalType":"uint256"}],"stateMutability":"view"},{"type":"function","name":"getConfirmationDeadline","inputs":[{"name":"invoiceId","type":"uint256","internalType":"uint256"}],"outputs":[{"name":"","type":"uint256","internalType":"uint256"}],"stateMutability":"view"},{"type":"function","name":"getEffectiveFee","inputs":[{"name":"merchant","type":"address","internalType":"address"}],"outputs":[{"name":"feeType","type":"uint8","internalType":"enum CryptoPaymentPlatform.FeeType"},{"name":"value","type":"uint256","internalType":"uint256"},{"name":"isUserOverride","type":"bool","internalType":"bool"}],"stateMutability":"view"},{"type":"function","name":"getEffectiveFlatFee","inputs":[{"name":"merchant","type":"address","internalType":"address"},{"name":"token","type":"address","internalType":"address"}],"outputs":[{"name":"amount","type":"uint256","internalType":"uint256"}],"stateMutability":"view"},{"type":"function","name":"getEscrow","inputs":[{"name":"invoiceId","type":"uint256","internalType":"uint256"}],"outputs":[{"name":"token","type":"address","internalType":"address"},{"name":"amount","type":"uint256","internalType":"uint256"},{"name":"frozen","type":"bool","internalType":"bool"},{"name":"released","type":"bool","internalType":"bool"}],"stateMutability":"view"},{"type":"function","name":"getExternalWallet","inputs":[{"name":"user","type":"address","internalType":"address"}],"outputs":[{"name":"","type":"address","internalType":"address"}],"stateMutability":"view"},{"type":"function","name":"getInvoice","inputs":[{"name":"invoiceId","type":"uint256","internalType":"uint256"}],"outputs":[{"name":"","type":"tuple","internalType":"struct CryptoPaymentPlatform.Invoice","components":[{"name":"id","type":"uint256","internalType":"uint256"},{"name":"payer","type":"address","internalType":"address"},{"name":"merchant","type":"address","internalType":"address"},{"name":"token","type":"address","internalType":"address"},{"name":"amount","type":"uint256","internalType":"uint256"},{"name":"dueDate","type":"uint256","internalType":"uint256"},{"name":"description","type":"string","internalType":"string"},{"name":"paymentType","type":"uint8","internalType":"enum CryptoPaymentPlatform.PaymentType"},{"name":"status","type":"uint8","internalType":"enum CryptoPaymentPlatform.InvoiceStatus"},{"name":"isRecurring","type":"bool","internalType":"bool"},{"name":"recurringInterval","type":"uint256","internalType":"uint256"},{"name":"maxCycles","type":"uint256","internalType":"uint256"},{"name":"completedCycles","type":"uint256","internalType":"uint256"},{"name":"nextDueDate","type":"uint256","internalType":"uint256"},{"name":"createdAt","type":"uint256","internalType":"uint256"},{"name":"payerAcknowledged","type":"bool","internalType":"bool"}]}],"stateMutability":"view"},{"type":"function","name":"getMerchantInvoices","inputs":[{"name":"merchant","type":"address","internalType":"address"}],"outputs":[{"name":"","type":"uint256[]","internalType":"uint256[]"}],"stateMutability":"view"},{"type":"function","name":"getMonthlyReceiveCount","inputs":[{"name":"user","type":"address","internalType":"address"}],"outputs":[{"name":"","type":"uint256","internalType":"uint256"}],"stateMutability":"view"},{"type":"function","name":"getPayerApprovedMerchants","inputs":[{"name":"payer","type":"address","internalType":"address"}],"outputs":[{"name":"","type":"address[]","internalType":"address[]"}],"stateMutability":"view"},{"type":"function","name":"getPayerInvoices","inputs":[{"name":"payer","type":"address","internalType":"address"}],"outputs":[{"name":"","type":"uint256[]","internalType":"uint256[]"}],"stateMutability":"view"},{"type":"function","name":"getRecurringApproval","inputs":[{"name":"payer","type":"address","internalType":"address"},{"name":"merchant","type":"address","internalType":"address"},{"name":"token","type":"address","internalType":"address"}],"outputs":[{"name":"active","type":"bool","internalType":"bool"},{"name":"maxPerCycle","type":"uint256","internalType":"uint256"},{"name":"totalLimit","type":"uint256","internalType":"uint256"},{"name":"totalSpent","type":"uint256","internalType":"uint256"},{"name":"remaining","type":"uint256","internalType":"uint256"}],"stateMutability":"view"},{"type":"function","name":"getTokenInfo","inputs":[{"name":"token","type":"address","internalType":"address"}],"outputs":[{"name":"supported","type":"bool","internalType":"bool"},{"name":"decimals","type":"uint8","internalType":"uint8"}],"stateMutability":"view"},{"type":"function","name":"getUserConfig","inputs":[{"name":"user","type":"address","internalType":"address"}],"outputs":[{"name":"","type":"tuple","internalType":"struct CryptoPaymentPlatform.UserConfig","components":[{"name":"isEmployee","type":"bool","internalType":"bool"}]}],"stateMutability":"view"},{"type":"function","name":"getUserTier","inputs":[{"name":"user","type":"address","internalType":"address"}],"outputs":[{"name":"","type":"uint8","internalType":"enum CryptoPaymentPlatform.UserTier"}],"stateMutability":"view"},{"type":"function","name":"isEmployee","inputs":[{"name":"","type":"address","internalType":"address"}],"outputs":[{"name":"","type":"bool","internalType":"bool"}],"stateMutability":"view"},{"type":"function","name":"markComplete","inputs":[{"name":"invoiceId","type":"uint256","internalType":"uint256"}],"outputs":[],"stateMutability":"nonpayable"},{"type":"function","name":"maxChallengesPerInvoice","inputs":[],"outputs":[{"name":"","type":"uint256","internalType":"uint256"}],"stateMutability":"view"},{"type":"function","name":"owner","inputs":[],"outputs":[{"name":"","type":"address","internalType":"address"}],"stateMutability":"view"},{"type":"function","name":"pause","inputs":[],"outputs":[],"stateMutability":"nonpayable"},{"type":"function","name":"paused","inputs":[],"outputs":[{"name":"","type":"bool","internalType":"bool"}],"stateMutability":"view"},{"type":"function","name":"payPostpaidInvoice","inputs":[{"name":"invoiceId","type":"uint256","internalType":"uint256"},{"name":"deadline","type":"uint256","internalType":"uint256"}],"outputs":[],"stateMutability":"nonpayable"},{"type":"function","name":"payPrepaidInvoice","inputs":[{"name":"invoiceId","type":"uint256","internalType":"uint256"},{"name":"deadline","type":"uint256","internalType":"uint256"}],"outputs":[],"stateMutability":"nonpayable"},{"type":"function","name":"pendingOwner","inputs":[],"outputs":[{"name":"","type":"address","internalType":"address"}],"stateMutability":"view"},{"type":"function","name":"previewFee","inputs":[{"name":"merchant","type":"address","internalType":"address"},{"name":"amount","type":"uint256","internalType":"uint256"},{"name":"token","type":"address","internalType":"address"}],"outputs":[{"name":"fee","type":"uint256","internalType":"uint256"},{"name":"net","type":"uint256","internalType":"uint256"}],"stateMutability":"view"},{"type":"function","name":"raiseDispute","inputs":[{"name":"invoiceId","type":"uint256","internalType":"uint256"},{"name":"reason","type":"string","internalType":"string"}],"outputs":[],"stateMutability":"nonpayable"},{"type":"function","name":"reclaimFunds","inputs":[{"name":"invoiceId","type":"uint256","internalType":"uint256"}],"outputs":[],"stateMutability":"nonpayable"},{"type":"function","name":"registerExternalWallet","inputs":[{"name":"externalWallet","type":"address","internalType":"address"}],"outputs":[],"stateMutability":"nonpayable"},{"type":"function","name":"rejectInvoice","inputs":[{"name":"invoiceId","type":"uint256","internalType":"uint256"},{"name":"reason","type":"string","internalType":"string"}],"outputs":[],"stateMutability":"nonpayable"},{"type":"function","name":"removeEmployee","inputs":[{"name":"employee","type":"address","internalType":"address"}],"outputs":[],"stateMutability":"nonpayable"},{"type":"function","name":"removeExternalWallet","inputs":[],"outputs":[],"stateMutability":"nonpayable"},{"type":"function","name":"removeSupportedToken","inputs":[{"name":"token","type":"address","internalType":"address"}],"outputs":[],"stateMutability":"nonpayable"},{"type":"function","name":"removeUserFee","inputs":[{"name":"user","type":"address","internalType":"address"}],"outputs":[],"stateMutability":"nonpayable"},{"type":"function","name":"renounceOwnership","inputs":[],"outputs":[],"stateMutability":"view"},{"type":"function","name":"resolveDispute","inputs":[{"name":"invoiceId","type":"uint256","internalType":"uint256"},{"name":"releaseToMerchant","type":"bool","internalType":"bool"},{"name":"reason","type":"string","internalType":"string"}],"outputs":[],"stateMutability":"nonpayable"},{"type":"function","name":"revokeRecurring","inputs":[{"name":"merchant","type":"address","internalType":"address"},{"name":"token","type":"address","internalType":"address"}],"outputs":[],"stateMutability":"nonpayable"},{"type":"function","name":"setChallengeWindow","inputs":[{"name":"duration","type":"uint256","internalType":"uint256"}],"outputs":[],"stateMutability":"nonpayable"},{"type":"function","name":"setConfirmationWindow","inputs":[{"name":"duration","type":"uint256","internalType":"uint256"}],"outputs":[],"stateMutability":"nonpayable"},{"type":"function","name":"setDefaultFee","inputs":[{"name":"feeType","type":"uint8","internalType":"enum CryptoPaymentPlatform.FeeType"},{"name":"value","type":"uint256","internalType":"uint256"}],"outputs":[],"stateMutability":"nonpayable"},{"type":"function","name":"setDefaultFlatFee","inputs":[{"name":"token","type":"address","internalType":"address"},{"name":"amount","type":"uint256","internalType":"uint256"}],"outputs":[],"stateMutability":"nonpayable"},{"type":"function","name":"setExternalWithdrawPermission","inputs":[{"name":"user","type":"address","internalType":"address"},{"name":"value","type":"bool","internalType":"bool"}],"outputs":[],"stateMutability":"nonpayable"},{"type":"function","name":"setFreeReceiveLimit","inputs":[{"name":"limit","type":"uint256","internalType":"uint256"}],"outputs":[],"stateMutability":"nonpayable"},{"type":"function","name":"setMaxChallenges","inputs":[{"name":"max","type":"uint256","internalType":"uint256"}],"outputs":[],"stateMutability":"nonpayable"},{"type":"function","name":"setTierDiscount","inputs":[{"name":"tier","type":"uint8","internalType":"enum CryptoPaymentPlatform.UserTier"},{"name":"discountBps","type":"uint256","internalType":"uint256"}],"outputs":[],"stateMutability":"nonpayable"},{"type":"function","name":"setUserFee","inputs":[{"name":"user","type":"address","internalType":"address"},{"name":"feeType","type":"uint8","internalType":"enum CryptoPaymentPlatform.FeeType"},{"name":"value","type":"uint256","internalType":"uint256"}],"outputs":[],"stateMutability":"nonpayable"},{"type":"function","name":"setUserFlatFee","inputs":[{"name":"user","type":"address","internalType":"address"},{"name":"token","type":"address","internalType":"address"},{"name":"amount","type":"uint256","internalType":"uint256"}],"outputs":[],"stateMutability":"nonpayable"},{"type":"function","name":"setUserTier","inputs":[{"name":"user","type":"address","internalType":"address"},{"name":"tier","type":"uint8","internalType":"enum CryptoPaymentPlatform.UserTier"}],"outputs":[],"stateMutability":"nonpayable"},{"type":"function","name":"supportedTokens","inputs":[{"name":"","type":"address","internalType":"address"}],"outputs":[{"name":"","type":"bool","internalType":"bool"}],"stateMutability":"view"},{"type":"function","name":"tokenDecimals","inputs":[{"name":"","type":"address","internalType":"address"}],"outputs":[{"name":"","type":"uint8","internalType":"uint8"}],"stateMutability":"view"},{"type":"function","name":"totalInvoices","inputs":[],"outputs":[{"name":"","type":"uint256","internalType":"uint256"}],"stateMutability":"view"},{"type":"function","name":"transferOwnership","inputs":[{"name":"newOwner","type":"address","internalType":"address"}],"outputs":[],"stateMutability":"nonpayable"},{"type":"function","name":"transferToUser","inputs":[{"name":"recipient","type":"address","internalType":"address"},{"name":"token","type":"address","internalType":"address"},{"name":"amount","type":"uint256","internalType":"uint256"},{"name":"isFamilyTransfer","type":"bool","internalType":"bool"}],"outputs":[],"stateMutability":"nonpayable"},{"type":"function","name":"triggerRecurring","inputs":[{"name":"invoiceId","type":"uint256","internalType":"uint256"}],"outputs":[],"stateMutability":"nonpayable"},{"type":"function","name":"unpause","inputs":[],"outputs":[],"stateMutability":"nonpayable"},{"type":"function","name":"withdrawETH","inputs":[{"name":"amount","type":"uint256","internalType":"uint256"}],"outputs":[],"stateMutability":"nonpayable"},{"type":"function","name":"withdrawToken","inputs":[{"name":"token","type":"address","internalType":"address"},{"name":"amount","type":"uint256","internalType":"uint256"}],"outputs":[],"stateMutability":"nonpayable"},{"type":"event","name":"AdminTransferred","inputs":[{"name":"oldAdmin","type":"address","indexed":true,"internalType":"address"},{"name":"newAdmin","type":"address","indexed":true,"internalType":"address"}],"anonymous":false},{"type":"event","name":"Deposit","inputs":[{"name":"user","type":"address","indexed":true,"internalType":"address"},{"name":"token","type":"address","indexed":true,"internalType":"address"},{"name":"amount","type":"uint256","indexed":false,"internalType":"uint256"}],"anonymous":false},{"type":"event","name":"DisputeChallenged","inputs":[{"name":"invoiceId","type":"uint256","indexed":true,"internalType":"uint256"},{"name":"challenger","type":"address","indexed":true,"internalType":"address"},{"name":"evidence","type":"string","indexed":false,"internalType":"string"}],"anonymous":false},{"type":"event","name":"DisputeRaised","inputs":[{"name":"invoiceId","type":"uint256","indexed":true,"internalType":"uint256"},{"name":"payer","type":"address","indexed":true,"internalType":"address"},{"name":"reason","type":"string","indexed":false,"internalType":"string"}],"anonymous":false},{"type":"event","name":"DisputeResolved","inputs":[{"name":"invoiceId","type":"uint256","indexed":true,"internalType":"uint256"},{"name":"decision","type":"string","indexed":false,"internalType":"string"},{"name":"resolver","type":"address","indexed":true,"internalType":"address"}],"anonymous":false},{"type":"event","name":"EmployeeAdded","inputs":[{"name":"employee","type":"address","indexed":true,"internalType":"address"}],"anonymous":false},{"type":"event","name":"EmployeeRemoved","inputs":[{"name":"employee","type":"address","indexed":true,"internalType":"address"}],"anonymous":false},{"type":"event","name":"ExternalWalletRegistered","inputs":[{"name":"user","type":"address","indexed":true,"internalType":"address"},{"name":"externalWallet","type":"address","indexed":true,"internalType":"address"}],"anonymous":false},{"type":"event","name":"ExternalWalletRemoved","inputs":[{"name":"user","type":"address","indexed":true,"internalType":"address"}],"anonymous":false},{"type":"event","name":"ExternalWithdrawPermissionUpdated","inputs":[{"name":"user","type":"address","indexed":true,"internalType":"address"},{"name":"canWithdraw","type":"bool","indexed":false,"internalType":"bool"}],"anonymous":false},{"type":"event","name":"FamilySenderApproved","inputs":[{"name":"recipient","type":"address","indexed":true,"internalType":"address"},{"name":"sender","type":"address","indexed":true,"internalType":"address"},{"name":"approved","type":"bool","indexed":false,"internalType":"bool"}],"anonymous":false},{"type":"event","name":"FeeConfigUpdated","inputs":[{"name":"user","type":"address","indexed":true,"internalType":"address"},{"name":"newFeeConfig","type":"tuple","indexed":false,"internalType":"struct CryptoPaymentPlatform.FeeConfig","components":[{"name":"feeType","type":"uint8","internalType":"enum CryptoPaymentPlatform.FeeType"},{"name":"value","type":"uint256","internalType":"uint256"},{"name":"isSet","type":"bool","internalType":"bool"}]}],"anonymous":false},{"type":"event","name":"FeeDeducted","inputs":[{"name":"invoiceId","type":"uint256","indexed":true,"internalType":"uint256"},{"name":"feeAmount","type":"uint256","indexed":false,"internalType":"uint256"},{"name":"token","type":"address","indexed":false,"internalType":"address"}],"anonymous":false},{"type":"event","name":"FlatFeeUpdated","inputs":[{"name":"user","type":"address","indexed":true,"internalType":"address"},{"name":"token","type":"address","indexed":true,"internalType":"address"},{"name":"amount","type":"uint256","indexed":false,"internalType":"uint256"}],"anonymous":false},{"type":"event","name":"FundsHeld","inputs":[{"name":"invoiceId","type":"uint256","indexed":true,"internalType":"uint256"},{"name":"reason","type":"string","indexed":false,"internalType":"string"}],"anonymous":false},{"type":"event","name":"FundsLocked","inputs":[{"name":"invoiceId","type":"uint256","indexed":true,"internalType":"uint256"},{"name":"amount","type":"uint256","indexed":false,"internalType":"uint256"}],"anonymous":false},{"type":"event","name":"FundsReclaimed","inputs":[{"name":"invoiceId","type":"uint256","indexed":true,"internalType":"uint256"},{"name":"payer","type":"address","indexed":true,"internalType":"address"}],"anonymous":false},{"type":"event","name":"FundsRefunded","inputs":[{"name":"invoiceId","type":"uint256","indexed":true,"internalType":"uint256"},{"name":"payer","type":"address","indexed":true,"internalType":"address"},{"name":"amount","type":"uint256","indexed":false,"internalType":"uint256"}],"anonymous":false},{"type":"event","name":"FundsReleased","inputs":[{"name":"invoiceId","type":"uint256","indexed":true,"internalType":"uint256"},{"name":"merchant","type":"address","indexed":true,"internalType":"address"},{"name":"netAmount","type":"uint256","indexed":false,"internalType":"uint256"}],"anonymous":false},{"type":"event","name":"InternalTransfer","inputs":[{"name":"from","type":"address","indexed":true,"internalType":"address"},{"name":"to","type":"address","indexed":true,"internalType":"address"},{"name":"token","type":"address","indexed":true,"internalType":"address"},{"name":"amount","type":"uint256","indexed":false,"internalType":"uint256"}],"anonymous":false},{"type":"event","name":"InvoiceAcknowledged","inputs":[{"name":"invoiceId","type":"uint256","indexed":true,"internalType":"uint256"},{"name":"payer","type":"address","indexed":true,"internalType":"address"}],"anonymous":false},{"type":"event","name":"InvoiceCancelled","inputs":[{"name":"invoiceId","type":"uint256","indexed":true,"internalType":"uint256"},{"name":"reason","type":"string","indexed":false,"internalType":"string"}],"anonymous":false},{"type":"event","name":"InvoiceConfirmed","inputs":[{"name":"invoiceId","type":"uint256","indexed":true,"internalType":"uint256"},{"name":"payer","type":"address","indexed":true,"internalType":"address"}],"anonymous":false},{"type":"event","name":"InvoiceCreated","inputs":[{"name":"invoiceId","type":"uint256","indexed":true,"internalType":"uint256"},{"name":"merchant","type":"address","indexed":true,"internalType":"address"},{"name":"payer","type":"address","indexed":true,"internalType":"address"},{"name":"amount","type":"uint256","indexed":false,"internalType":"uint256"},{"name":"token","type":"address","indexed":false,"internalType":"address"},{"name":"paymentType","type":"uint8","indexed":false,"internalType":"enum CryptoPaymentPlatform.PaymentType"},{"name":"isRecurring","type":"bool","indexed":false,"internalType":"bool"}],"anonymous":false},{"type":"event","name":"InvoiceEdited","inputs":[{"name":"invoiceId","type":"uint256","indexed":true,"internalType":"uint256"},{"name":"editor","type":"address","indexed":true,"internalType":"address"},{"name":"timestamp","type":"uint256","indexed":false,"internalType":"uint256"}],"anonymous":false},{"type":"event","name":"InvoiceMarkedComplete","inputs":[{"name":"invoiceId","type":"uint256","indexed":true,"internalType":"uint256"},{"name":"merchant","type":"address","indexed":true,"internalType":"address"}],"anonymous":false},{"type":"event","name":"InvoicePaid","inputs":[{"name":"invoiceId","type":"uint256","indexed":true,"internalType":"uint256"},{"name":"payer","type":"address","indexed":true,"internalType":"address"},{"name":"amount","type":"uint256","indexed":false,"internalType":"uint256"},{"name":"timestamp","type":"uint256","indexed":false,"internalType":"uint256"}],"anonymous":false},{"type":"event","name":"OwnershipTransferStarted","inputs":[{"name":"previousOwner","type":"address","indexed":true,"internalType":"address"},{"name":"newOwner","type":"address","indexed":true,"internalType":"address"}],"anonymous":false},{"type":"event","name":"OwnershipTransferred","inputs":[{"name":"previousOwner","type":"address","indexed":true,"internalType":"address"},{"name":"newOwner","type":"address","indexed":true,"internalType":"address"}],"anonymous":false},{"type":"event","name":"Paused","inputs":[{"name":"account","type":"address","indexed":false,"internalType":"address"}],"anonymous":false},{"type":"event","name":"RecurringInvoiceTriggered","inputs":[{"name":"invoiceId","type":"uint256","indexed":true,"internalType":"uint256"},{"name":"cycleNumber","type":"uint256","indexed":false,"internalType":"uint256"}],"anonymous":false},{"type":"event","name":"TokenAdded","inputs":[{"name":"token","type":"address","indexed":true,"internalType":"address"},{"name":"decimals","type":"uint8","indexed":false,"internalType":"uint8"}],"anonymous":false},{"type":"event","name":"TokenRemoved","inputs":[{"name":"token","type":"address","indexed":true,"internalType":"address"}],"anonymous":false},{"type":"event","name":"Unpaused","inputs":[{"name":"account","type":"address","indexed":false,"internalType":"address"}],"anonymous":false},{"type":"event","name":"UserFeeTierUpdated","inputs":[{"name":"user","type":"address","indexed":true,"internalType":"address"},{"name":"newFeeConfig","type":"tuple","indexed":false,"internalType":"struct CryptoPaymentPlatform.FeeConfig","components":[{"name":"feeType","type":"uint8","internalType":"enum CryptoPaymentPlatform.FeeType"},{"name":"value","type":"uint256","internalType":"uint256"},{"name":"isSet","type":"bool","internalType":"bool"}]}],"anonymous":false},{"type":"event","name":"UserRegistered","inputs":[{"name":"user","type":"address","indexed":true,"internalType":"address"},{"name":"role","type":"string","indexed":false,"internalType":"string"}],"anonymous":false},{"type":"event","name":"UserRoleUpdated","inputs":[{"name":"user","type":"address","indexed":true,"internalType":"address"},{"name":"newRole","type":"string","indexed":false,"internalType":"string"}],"anonymous":false},{"type":"event","name":"UserTierUpdated","inputs":[{"name":"user","type":"address","indexed":true,"internalType":"address"},{"name":"tier","type":"uint8","indexed":false,"internalType":"enum CryptoPaymentPlatform.UserTier"}],"anonymous":false},{"type":"event","name":"Withdrawal","inputs":[{"name":"user","type":"address","indexed":true,"internalType":"address"},{"name":"token","type":"address","indexed":true,"internalType":"address"},{"name":"amount","type":"uint256","indexed":false,"internalType":"uint256"}],"anonymous":false},{"type":"event","name":"WorkSubmitted","inputs":[{"name":"invoiceId","type":"uint256","indexed":true,"internalType":"uint256"},{"name":"merchant","type":"address","indexed":true,"internalType":"address"}],"anonymous":false},{"type":"error","name":"CannotRegisterOwnAddress","inputs":[]},{"type":"error","name":"CannotTransferToSelf","inputs":[]},{"type":"error","name":"ChallengeWindowExpired","inputs":[{"name":"invoiceId","type":"uint256","internalType":"uint256"},{"name":"deadline","type":"uint256","internalType":"uint256"}]},{"type":"error","name":"ConfirmationWindowExpired","inputs":[{"name":"invoiceId","type":"uint256","internalType":"uint256"},{"name":"deadline","type":"uint256","internalType":"uint256"}]},{"type":"error","name":"ConfirmationWindowNotExpired","inputs":[{"name":"invoiceId","type":"uint256","internalType":"uint256"},{"name":"deadline","type":"uint256","internalType":"uint256"}]},{"type":"error","name":"ContractMustBePaused","inputs":[]},{"type":"error","name":"EnforcedPause","inputs":[]},{"type":"error","name":"EscrowAlreadyReleased","inputs":[{"name":"invoiceId","type":"uint256","internalType":"uint256"}]},{"type":"error","name":"EscrowFrozen","inputs":[{"name":"invoiceId","type":"uint256","internalType":"uint256"}]},{"type":"error","name":"ExpectedPause","inputs":[]},{"type":"error","name":"ExternalWithdrawNotApproved","inputs":[{"name":"user","type":"address","internalType":"address"}]},{"type":"error","name":"InsufficientBalance","inputs":[{"name":"user","type":"address","internalType":"address"},{"name":"token","type":"address","internalType":"address"},{"name":"required","type":"uint256","internalType":"uint256"},{"name":"available","type":"uint256","internalType":"uint256"}]},{"type":"error","name":"InvalidAmount","inputs":[]},{"type":"error","name":"InvalidFeeConfig","inputs":[]},{"type":"error","name":"InvalidInvoiceStatus","inputs":[{"name":"invoiceId","type":"uint256","internalType":"uint256"},{"name":"current","type":"uint8","internalType":"enum CryptoPaymentPlatform.InvoiceStatus"}]},{"type":"error","name":"InvoiceDueDateNotPassed","inputs":[{"name":"invoiceId","type":"uint256","internalType":"uint256"}]},{"type":"error","name":"InvoiceDueDatePassed","inputs":[{"name":"invoiceId","type":"uint256","internalType":"uint256"}]},{"type":"error","name":"InvoiceNotAcknowledged","inputs":[{"name":"invoiceId","type":"uint256","internalType":"uint256"}]},{"type":"error","name":"InvoiceNotEditable","inputs":[{"name":"invoiceId","type":"uint256","internalType":"uint256"}]},{"type":"error","name":"InvoiceNotFound","inputs":[{"name":"invoiceId","type":"uint256","internalType":"uint256"}]},{"type":"error","name":"MaxChallengesReached","inputs":[{"name":"invoiceId","type":"uint256","internalType":"uint256"}]},{"type":"error","name":"MaxCyclesReached","inputs":[{"name":"invoiceId","type":"uint256","internalType":"uint256"}]},{"type":"error","name":"OwnableInvalidOwner","inputs":[{"name":"owner","type":"address","internalType":"address"}]},{"type":"error","name":"OwnableUnauthorizedAccount","inputs":[{"name":"account","type":"address","internalType":"address"}]},{"type":"error","name":"PartialRefundExceedsEscrow","inputs":[{"name":"invoiceId","type":"uint256","internalType":"uint256"},{"name":"requested","type":"uint256","internalType":"uint256"},{"name":"available","type":"uint256","internalType":"uint256"}]},{"type":"error","name":"RecurringLimitExceeded","inputs":[]},{"type":"error","name":"RecurringNotApproved","inputs":[]},{"type":"error","name":"ReentrancyGuardReentrantCall","inputs":[]},{"type":"error","name":"ResolutionNotReady","inputs":[{"name":"invoiceId","type":"uint256","internalType":"uint256"},{"name":"readyAt","type":"uint256","internalType":"uint256"}]},{"type":"error","name":"SafeERC20FailedOperation","inputs":[{"name":"token","type":"address","internalType":"address"}]},{"type":"error","name":"TokenNotSupported","inputs":[{"name":"token","type":"address","internalType":"address"}]},{"type":"error","name":"TooEarlyForCycle","inputs":[{"name":"invoiceId","type":"uint256","internalType":"uint256"},{"name":"nextDue","type":"uint256","internalType":"uint256"}]},{"type":"error","name":"TransactionExpired","inputs":[]},{"type":"error","name":"Unauthorized","inputs":[]},{"type":"error","name":"ZeroAddress","inputs":[]}],"bytecode":{"object":"0x60806040523461026157604051600090615d213881900390601f8201601f191683016001600160401b0381118482101761024d57918084926020946040528339810103126102495751903315610235578054600180546001600160a01b031990811690915581163390811783556001600160a01b0390911690817f8be0079c531659141344cd1fd0a4f28419497f9722a3daafe3b4186f6b6457e08480a333907ff8ccb027dfcd135e000e9d45e6cc2d662578a8825d4c45b5e32e0adf67e79ec68380a3600160025562278d006018556001601b5562093a80601c556005602055612710821161022657604051606081016001600160401b03811182821017610212576040908152918152602080820184905260019183018290526011805460ff199081169091556012948555601380548216841790557f05b8ccbb9d4d8fb16ea74ce3c29a41f1b461fbdaff4714a0d9a8eb05499746bc805482169093179092557f54cdd369e4e8a8515e52ca72ec816c2101831ad1f18bf44102ed171459c9b4f88054909216909317905560239091526103e87fb361aea33a0348d043deace4a562cb920ac10508397ad80f12dfe9a2a063e047556107d07f1bcb44d21c67d5659cdd5f45cd32c6d6c6d33d5044115600c6652ecd87939c09556003600052610bb87fca0574cb82515dd8d8feabc9bfece9b4778855cddef4d6e8f68e64178480ff7e5551615aba90816102678239f35b634e487b7160e01b83526041600452602483fd5b632b00a33d60e11b8152600490fd5b631e4fbdf760e01b81526004819052602490fd5b5080fd5b634e487b7160e01b85526041600452602485fd5b600080fdfe6080806040526004361015610093575b50361561001b57600080fd5b60ff60035416610082573461002c57005b33600052600460205260408060002060009081805260205220610050348254614fe2565b905560006040513481527f5548c837ab068cf56a2c2479df0882a4922fd203edb7517321831d95078c5f6260203392a3005b6338ea52e560e11b60005260046000fd5b60003560e01c908163011e116714614d605750806301c1aa0d14614d2a578063042084f91461493f5780630ef57bb914614905578063158c5c2a146146e357806316626ab9146146865780631f69565f146146325780631f87f6db1461458c57806321a1ae42146140ec57806325c5f794146140aa5780632840662d14613ecc5780632c0fa21014613e35578063338b5dea14613c7257806335647762146139d3578063368066d214613985578063373a80091461393157806337b50d481461346c57806339c9aa3f146133a75780633a23cc0a146130855780633f4ba83a1461301c5780633f97833b14612efa57806344eb4b9d14612d6f57806348671e3514612d335780634bd167c914612d155780635aef573c14612bd35780635c975abb14612bb05780635d7d538a14612b925780635e59a17314612b5e5780635e9721bd14612b4157806367067ed614612a1a57806368c4ac26146129db578063715018a6146129c2578063763191901461294b57806377df9ce2146127d6578063792af3db1461277b57806379ba5097146126c75780637d19e5961461266a5780638093c12c146123b55780638456cb591461235157806385fee741146122a857806386c0909c146122315780638896c24d146120f05780638da5cb5b146120c75780638e7c6426146120025780638ee573ac14611fc55780638f38965f14611d575780638fbaf66f14611cd457806394aeb61314611bd157806396ec4fe314611b9e5780639b54db4a14611b685780639cf127fa14611b3d5780639e281a98146119db5780639e2877b2146119ab578063a04725c6146118f7578063a3a06671146118cc578063a4e7c78614611800578063b953b13d146117b7578063b96ba3b61461175a578063bf5c40401461173c578063c63fdcc714611624578063cc1b5a361461159f578063d108177a146114d9578063ddaa8e841461141d578063e1a0014914611301578063e1a45218146112e4578063e30c3978146112bb578063e3d4f58814611230578063e4d2620e146111ee578063e783e514146111c2578063ea66543f14611183578063f14210a61461101b578063f146be3914610eaa578063f2fde38b14610e36578063f3a14bcc14610e18578063f3cb8c3114610d42578063f45102d414610c60578063f4a3669214610c21578063f5489b7e14610acb578063f6326fb314610a3d578063f7888aec146109ec578063f9f161a81461083d578063feecf3c614610547578063ff5a776e1461048c5763ffa1ad741461043c573861000f565b3461048757600036600319011261048757610483604080519061045f8183614fa6565b600582526418971c171960d91b602083015251918291602083526020830190614e3e565b0390f35b600080fd5b34610487576040366003190112610487576104a5614d7a565b6104ad614e02565b6001600160a01b0390911690811561053657338214610525573360005260176020526040600020826000526020526104f58160406000209060ff801983541691151516179055565b60405190151581527f23d4ece267eaedd5dfd6b648dfa6b9abd6f8bcac00d4911dfd97282c3569ae2260203392a3005b636d6c4ee560e11b60005260046000fd5b63d92e233d60e01b60005260046000fd5b346104875761055536614dbc565b61055d61534e565b61056561536e565b6000546001600160a01b031633141580610824575b6108145781600052600a602052604060002054156107ff5781600052600a6020526040600020600781019260ff845460081c1660088110156107e9576006811415806107de575b6107c1575080600052600d6020526040600020916002830180549460ff8660081c166107ac576001850154918282116107905760ff1987168155818303610631575050506001015461061d93506001600160a01b03169061558f565b805461ff0019166104001790556001600255005b6002602094836000805160206159e5833981519152936101006106838a9b977f6e3c6096795c8298a218b2cfb8bde42726ff7c9a3d27b4d3ba41ab7f74feb5fb9b9860018060a01b039054169961502f565b9b61ffff191617905584600080516020615a25833981519152886001850160018060a01b0381541660005260048252604060002060018060a01b038b16600052825260406000206106d5868254614fe2565b9055546040519485526001600160a01b031693a301926107008160018060a01b03865416998a61539e565b9860005260048652604060002060018060a01b0383166000528652604060002061072b8a8254614fe2565b9055600080546001600160a01b03908116825260048852604080832091851683529088529020805461075e908390614fe2565b9055604080519182526001600160a01b03929092166020820152a2546040519485526001600160a01b031693a361061d565b5083634d3c67d560e01b60005260045260245260445260646000fd5b836378848c3160e11b60005260045260246000fd5b6107d891633c68ce0b60e21b600052600452614e89565b60446000fd5b5060078114156105c1565b634e487b7160e01b600052602160045260246000fd5b50630bc917e760e31b60005260045260246000fd5b6282b42960e81b60005260046000fd5b5033600052600860205260ff604060002054161561057a565b346104875760203660031901126104875760043561085961534e565b61086161536e565b80600052600a602052604060002054156109d8576000818152600a602052604090206001810180546001600160a01b0316330361081457600782019160ff835460081c1660088110156107e957600281036109bf5750600501544211156109aa5782600052600d6020526040600020600281019182549260ff8460081c166109955760ff19909316909255905461090291906001600160a01b03168461558f565b61050061ff00198254161790556000805160206159c5833981519152608060405133847f46c841626c5a3a06a79de56c542720e6d46b2199450ee7a5e28e2e0fe93cdcc7600080a360208152602960208201527f4d65726368616e7420646964206e6f7420636f6d706c657465206265666f726560408201526820647565206461746560b81b6060820152a26001600255005b856378848c3160e11b60005260045260246000fd5b82633acc884d60e21b60005260045260246000fd5b633c68ce0b60e21b60005260048590526107d890614e89565b630bc917e760e31b60005260045260246000fd5b3461048757604036600319011261048757610a05614d7a565b610a0d614d90565b6001600160a01b039182166000908152600460209081526040808320949093168252928352819020549051908152f35b600036600319011261048757610a5161534e565b610a5961536e565b3415610aba5733600052600460205260408060002060009081805260205220610a83348254614fe2565b905560006040513481527f5548c837ab068cf56a2c2479df0882a4922fd203edb7517321831d95078c5f6260203392a36001600255005b63162908e360e11b60005260046000fd5b3461048757602036600319011261048757600435610ae761534e565b610aef61536e565b80600052600a602052604060002054156109d85780600052600a6020526040600020600781019060ff825460081c1660088110156107e95760078103610c08575082600052601960205260406000205480421115610bf0575082600052600d6020526040600020600281019182549260ff8460081c166109955760ff19909316909255600282015460019290920154610b95926001600160a01b03918216911685615854565b61040061ff00198254161790556040519060208252600960208301526811925390531256915160ba1b60408301527f8b690c57d5bdde922fd66f41c686751715879388cbc5dc0aaeb3a84f45e50e3d60603393a36001600255005b836374883b4960e01b60005260045260245260446000fd5b633c68ce0b60e21b60005260048490526107d890614e89565b34610487576020366003190112610487576001600160a01b03610c42614d7a565b16600052601f602052602060ff604060002054166040519015158152f35b3461048757604036600319011261048757600435600281101561048757600054602435906001600160a01b0316330361081457610c9c82614e7f565b811580610d37575b610d265760408051610cb581614f8b565b610cbe84614e7f565b83815260208101928352019160018352610cd781614e7f565b610ce081614e7f565b60ff8019601154169116176011555160125551151560ff8019601354169116176013556000600080516020615a6583398151915260405180610d2181615291565b0390a2005b632b00a33d60e11b60005260046000fd5b506127108111610ca4565b3461048757602036600319011261048757610d5b614d7a565b6000546001600160a01b03163303610814576001600160a01b03168015610536578060005260086020526040600020600160ff198254161790558060005260076020526040600020600160ff198254161790557e755ce76c2358d4b65f62e2448e09df1fb836633e744eeb1dad7e88e374d4946060604051837f041109cfe10cfa549abb66b986d0a294ecc6c9ad39000abcb9c2afd422c8bd64600080a2602081526008602082015267454d504c4f59454560c01b6040820152a2005b34610487576000366003190112610487576020601b54604051908152f35b3461048757602036600319011261048757610e4f614d7a565b610e57615770565b60018060a01b0316806bffffffffffffffffffffffff60a01b600154161760015560018060a01b03600054167f38d16b8cac22d99fc7c124b9cd0de2d3fa1faef420bfe791d8c362d765e22700600080a3005b3461048757606036600319011261048757610ec3614d7a565b602435906002821015610487576044359060018060a01b036000541633141580611002575b610814576001600160a01b031691821561053657610f0581614e7f565b801580610ff7575b610d26576002610f899260405192610f2484614f8b565b610f2d81614e7f565b83526020830190815260408301906001825285600052601560205260406000209351610f5881614e7f565b610f6181614e7f565b60ff8019865416911617845551600184015551151591019060ff801983541691151516179055565b80600052601560205280600080516020615a65833981519152610fb66040600020604051918291826152bf565b0390a28060005260156020527f469417401c65c43cc7a9ed06c9b7c5ca1a7ae8067d7380391fb68f6771aafb73610d216040600020604051918291826152bf565b506127108211610f0d565b5033600052600860205260ff6040600020541615610ee8565b346104875760203660031901126104875760043561103761534e565b61103f61536e565b8015610aba573360005260046020526040600020600080526020526040600020548181106111575750336000908152601e60205260409020546001600160a01b031615158061113e575b61112957336000526004602052604080600020600090818052602052206110b182825461502f565b9055600080808084335af16110c4615085565b50156110ee57600090604051908152600080516020615a4583398151915260203392a36001600255005b60405162461bcd60e51b8152602060048201526013602482015272115512081d1c985b9cd9995c8819985a5b1959606a1b6044820152606490fd5b63233fa2bd60e11b6000523360045260246000fd5b5033600052601f60205260ff6040600020541615611089565b60405163861da4bd60e01b81523360048201526000602482015260448101929092526064820152608490fd5b34610487576020366003190112610487576001600160a01b036111a4614d7a565b166000526008602052602060ff604060002054166040519015158152f35b3461048757602036600319011261048757600435600052601d6020526020604060002054604051908152f35b34610487576020366003190112610487576001600160a01b0361120f614d7a565b16600052602260205261048360ff6040600020541660405191829182614f26565b3461048757602036600319011261048757611249614d7a565b6000546001600160a01b0316331415806112a2575b6108145760018060a01b031680600052601560205260006002604082208281558260018201550155600080516020615a6583398151915260405180610d2181615291565b5033600052600860205260ff604060002054161561125e565b34610487576000366003190112610487576001546040516001600160a01b039091168152602090f35b346104875760003660031901126104875760206040516127108152f35b346104875760203660031901126104875760043561131d61534e565b61132561536e565b6000546001600160a01b031633036108145780600052600a602052604060002054156109d85780600052600a60205260406000206007810160ff815460081c1660088110156107e957600681141580611412575b610c08575082600052600d6020526040600020600281019081549160ff8360081c166109955760ff1990921690915560028301805460019094015490936113ce92916001600160a01b03908116911686615854565b805461ff001916610400179055546001600160a01b0316907f64addbfb2188c024279ebc56031fd973e84d779567737453ff6725406fbf5cf5600080a36001600255005b506007811415611379565b346104875760203660031901126104875760043561143961536e565b80600052600a602052604060002054156109d8576000818152600a6020526040902060018101546001600160a01b031633036108145760ff600782015460081c1660088110156107e957806114c05750600d01805460ff1916600117905533907f75d08456980f903e05d542f33de8b2c8ca8ca5dbc3e024fe19357eb016133121600080a3005b633c68ce0b60e21b60005260048390526107d890614e89565b34610487576020366003190112610487576114f2614d7a565b6000546001600160a01b031633036108145760018060a01b0316806000526008602052604060002060ff198154169055806000526007602052604060002060ff1981541690557e755ce76c2358d4b65f62e2448e09df1fb836633e744eeb1dad7e88e374d4946060604051837fabae6e64cb4315875c29d42347a312f5e9fce4ab564e9722b43dd78d0751135a600080a26020815260056020820152642820aca2a960d91b6040820152a2005b34610487576020366003190112610487576001600160a01b036115c0614d7a565b1680156105365733811461161357336000818152601e6020526040812080546001600160a01b031916841790557f5d93b8d97a6d710f68feea8a7801940f04fb7709d53cdfd4f6b572413f1d53dc9080a3005b631843c4df60e31b60005260046000fd5b346104875760203660031901126104875760043561164061534e565b61164861536e565b80600052600a602052604060002054156109d8576000818152600a602052604090206002810180549091906001600160a01b0316330361081457600781019060ff825460081c1660088110156107e957600381036109bf575083600052601d6020526040600020544211156117165783600052600d6020526040600020600281019182549260ff8460081c166117015760ff199093169092558354600192909201546113ce926001600160a01b03918216911686615854565b866378848c3160e11b60005260045260246000fd5b6000848152601d602052604081205463cf2176a360e01b82526004869052602452604490fd5b34610487576000366003190112610487576020601c54604051908152f35b3461048757604036600319011261048757611773614d7a565b61177b614d90565b336000908152600e602090815260408083206001600160a01b03958616845282528083209390941682529190915220600301805460ff19169055005b346104875760403660031901126104875760043560048110156104875760005460243591906001600160a01b03163303610814576127108211610d26576117fd90615335565b55005b34610487576020366003190112610487576001600160a01b03611821614d7a565b16600052600f60205260406000206040518060208354918281520190819360005260206000209060005b8181106118ad5750505081611861910382614fa6565b6040519182916020830190602084525180915260408301919060005b81811061188b575050500390f35b82516001600160a01b031684528594506020938401939092019160010161187d565b82546001600160a01b031684526020909301926001928301920161184b565b34610487576020366003190112610487576000546001600160a01b0316330361081457600435602055005b3461048757604036600319011261048757611910614d7a565b602435906004821015610487576000546001600160a01b031633141580611992575b610814576001600160a01b031690811561053657610d217f2c5058e6b62e3a051b49924004ba426cffa04fb4ab6788a057ca44c2da3c8f5591836000526022602052604060002060ff1981541660ff831617905560405191829182614f26565b5033600052600860205260ff6040600020541615611932565b346104875760003660031901126104875760ff601154166012549061048360ff6013541660405193849384614f04565b34610487576040366003190112610487576119f4614d7a565b6024356119ff61534e565b611a0761536e565b6001600160a01b038216918215611b28578115610aba57336000526004602052604060002083600052602052604060002054828110611b06575050336000908152601e60205260409020546001600160a01b0316151580611aed575b611129573360005260046020526040600020826000526020526040600020611a8c82825461502f565b905560405163a9059cbb60e01b602082015233602482015260448101829052611acc90611ac681606481015b03601f198101835282614fa6565b83615969565b604051908152600080516020615a4583398151915260203392a36001600255005b5033600052601f60205260ff6040600020541615611a63565b611b249060405193849363861da4bd60e01b85523360048601615005565b0390fd5b826306439c6b60e01b60005260045260246000fd5b34610487576020366003190112610487576000546001600160a01b0316330361081457600435601b55005b3461048757602036600319011261048757600054600435906001600160a01b0316330361081457620151808110610aba57601c55005b3461048757602036600319011261048757610483611bc2611bbd614d7a565b6152f0565b60409391935193849384614f04565b3461048757602036600319011261048757600435611bed61534e565b611bf561536e565b80600052600a602052604060002054156109d8576000818152600a602052604090206001810180549091906001600160a01b0316330361081457600781019160ff835460081c1660088110156107e957600381036109bf575083600052600d602052604060002090600282019283549360ff8560081c166117015760ff19909416909355600292909201549154611c99926001600160a01b03918216911685615854565b805461ff00191661040017905533907f5ad1f83fed722a2f75a27916c297196db29e3d208589663ebe1fef5ab880ad50600080a36001600255005b34610487576020366003190112610487576001600160a01b03611cf5614d7a565b16600052600c602052604060002060405190816020825491828152019160005260206000209060005b818110611d415761048385611d3581870382614fa6565b60405191829182614eca565b8254845260209093019260019283019201611d1e565b3461048757608036600319011261048757611d70614d7a565b611d78614d90565b6044359160643590811515820361048757611d9161534e565b611d9961536e565b6001600160a01b03831660008181526005602052604090205490919060ff1615611fb0576001600160a01b031691338314610525578215610536578415610aba57336000526004602052604060002082600052602052604060002054858110611f90575015611f7e57600082815260176020908152604080832033845290915290205460ff161561081457611e2d42615602565b9180600052602160205260406000208360005260205260406000205460205411600014611f6a5760009480935b8260005260216020526040600020906000526020526040600020611e7e815461503c565b90555b336000526004602052604060002083600052602052611ea6604060002091825461502f565b90558060005260046020526040600020826000526020526040600020611ecd848254614fe2565b90558415159283611f34575b604051908152600080516020615a0583398151915260203392a4611eff575b6001600255005b604080519283526001600160a01b03919091166020830152600019916000805160206159e58339815191529190a28080611ef8565b60018060a01b036000541660005260046020526040600020836000526020526040600020611f63878254614fe2565b9055611ed9565b611f7684869496615784565b939095611e5a565b611f888385615784565b929094611e81565b60405163861da4bd60e01b8152908190611b249088883360048601615005565b506306439c6b60e01b60005260045260246000fd5b34610487576020366003190112610487576001600160a01b03611fe6614d7a565b166000526006602052602060ff60406000205416604051908152f35b346104875760403660031901126104875761201b614d7a565b60005460243591906001600160a01b03163303610814576001600160a01b031660008181526005602052604090205490919060ff1615611fb0577fefc08bd2b002e7155a2c93fb40410537cec7d6f0eae8d7d44fc8cc4dd9b371cf602060009284845260148252806040852055600160ff196011541617601155600160ff196013541617601355604051908152a36000600080516020615a6583398151915260405180610d2181615291565b34610487576000366003190112610487576000546040516001600160a01b039091168152602090f35b3461048757606036600319011261048757612109614d7a565b612111614d90565b906044359160018060a01b036000541633141580612218575b610814576001600160a01b031660008181526005602052604090205490919060ff1615611fb0576001600160a01b0316918215610536577fefc08bd2b002e7155a2c93fb40410537cec7d6f0eae8d7d44fc8cc4dd9b371cf60208492836000526016825260406000208560005282528060406000205583600052601582526040600020600160ff1982541617905583600052601582526002604060002001600160ff19825416179055604051908152a38060005260156020527f469417401c65c43cc7a9ed06c9b7c5ca1a7ae8067d7380391fb68f6771aafb73610d216040600020604051918291826152bf565b5033600052600860205260ff604060002054161561212a565b34610487576020366003190112610487576001600160a01b03612252614d7a565b16600052600b602052604060002060405190816020825491828152019160005260206000209060005b8181106122925761048385611d3581870382614fa6565b825484526020909301926001928301920161227b565b34610487576122b636614e97565b82600093929352600a602052604060002054156107ff576000828152600a6020526040902060018101546001600160a01b03163303610814576007019260ff845460081c169360088510156107e95784612338576000805160206159c583398151915293945061050061ff0019825416179055610d21604051928392836151b7565b633c68ce0b60e21b60005260048490526107d885614e89565b34610487576000366003190112610487576000546001600160a01b031633036108145761237c61536e565b600160ff1960035416176003557f62e78cea01bee320cd4e420270b5ea74000d11b0c9f74754ebdbfc544b05a2586020604051338152a1005b34610487576123c336614dbc565b6123cb61534e565b6123d361536e565b81600052600a602052604060002054156107ff574211612659576000818152600a6020526040902060018101549091906001600160a01b031633036108145760078201918254600160ff821661242881614e7f565b036108145760ff9060081c1660088110156107e957806114c0575060ff600d8201541615612644576005810154421161262f5760018060a01b03600382015416600482015491336000526004602052604060002060018060a01b0383166000526020526040600020548381106126105750600201836000805160206159e5833981519152836124c1818760018060a01b0387541661539e565b98336000526004602052604060002060018060a01b03841660005260205260406000206124ef89825461502f565b905560018060a01b038654166000526004602052604060002060018060a01b03841660005260205260406000206125278b8254614fe2565b905560018060a01b03600054166000526004602052604060002060018060a01b0384166000526020526040600020612560838254614fe2565b9055805461ff001916610400179055604080519182526001600160a01b03929092166020820152a2546040519485526001600160a01b03169384903390600080516020615a0583398151915290602090a4604051908152426020820152817fad182a582b60dfb698b15ddbe85c01fe3d9c2161ef730aa75fbc0688d7a0ec3d60403393a37f64addbfb2188c024279ebc56031fd973e84d779567737453ff6725406fbf5cf5600080a36001600255005b60405163861da4bd60e01b8152938493611b2493503360048601615005565b5063f135ddad60e01b60005260045260246000fd5b5063524a009f60e11b60005260045260246000fd5b6338e5e54b60e21b60005260046000fd5b3461048757602036600319011261048757600435600052600d6020526080604060002060ff60018060a01b0382541691600260018201549101549060405193845260208401528181161515604084015260081c1615156060820152f35b3461048757600036600319011261048757600154336001600160a01b03909116036127665760008054600180546001600160a01b031990811690915533908216811783556001600160a01b039091169182907f8be0079c531659141344cd1fd0a4f28419497f9722a3daafe3b4186f6b6457e09080a333907ff8ccb027dfcd135e000e9d45e6cc2d662578a8825d4c45b5e32e0adf67e79ec6600080a3005b63118cdaa760e01b6000523360045260246000fd5b3461048757604036600319011261048757612794614d7a565b61279c614d90565b9060018060a01b0316600052601760205260406000209060018060a01b0316600052602052602060ff604060002054166040519015158152f35b34610487576127e436614e97565b6127ec61536e565b82600052600a60205260406000205415612936576000838152600a6020526040902060018101546001600160a01b03163303610814576007019160ff835460081c1660088110156107e957600781036109bf575083600052601960205260406000205442116129105783600052601a602052604060002054601b5411156128fb577fd0a6895b72ff229033ff8de73cac482fe601d2fde995dbcb579886c5c17bb8199284600052601a60205260406000206128a7815461503c565b905561060061ff0019825416179055604051847f5d82a362870e87132d00a530dc791c89bf2ef21cfdbee4eb270e61af006f2a833392806128e98787836151b7565b0390a3610d21604051928392836151b7565b836334d2eb5f60e21b60005260045260246000fd5b60008481526019602052604081205463186d532f60e01b82526004869052602452604490fd5b82630bc917e760e31b60005260045260246000fd5b3461048757602036600319011261048757612964614d7a565b6000546001600160a01b03163303610814576001600160a01b0316801561053657806000526005602052604060002060ff1981541690557f4c910b69fe65a61f7531b9c5042b2329ca7179c77290aa7e2eb3afa3c8511fd3600080a2005b3461048757600036600319011261048757610814615770565b34610487576020366003190112610487576001600160a01b036129fc614d7a565b166000526005602052602060ff604060002054166040519015158152f35b3461048757602036600319011261048757600435612a3661534e565b612a3e61536e565b80600052600a602052604060002054156109d8576000818152600a6020526040902060028101546001600160a01b0316330361081457600781019060ff825460081c1660088110156107e95760028103610c08575060050154421161262f5781600052600d60205260026040600020015460ff8116612b2c5760081c60ff16612b1757612acd601c5442614fe2565b82600052601d60205260406000205561030061ff001982541617905533907f2e1034180f85502b3a04560be6ed4c24fe9b9c9e0bd7f4e09720494ac48859fa600080a36001600255005b506378848c3160e11b60005260045260246000fd5b82635f15fecd60e11b60005260045260246000fd5b346104875760003660031901126104875760208054604051908152f35b34610487576040366003190112610487576020612b8a612b7c614d7a565b612b84614d90565b906151df565b604051908152f35b34610487576000366003190112610487576020600954604051908152f35b3461048757600036600319011261048757602060ff600354166040519015158152f35b3461048757612be136614e97565b612be961536e565b82600052600a60205260406000205415612936576000838152600a6020526040902060018101546001600160a01b031633036108145760070191825460ff8116612c3281614e7f565b6108145760ff9060081c1660088110156107e957600381036109bf575083600052601d6020526040600020544211612cef5783600052600d60205260026040600020019283549360ff8560081c166109955760017fd0a6895b72ff229033ff8de73cac482fe601d2fde995dbcb579886c5c17bb8199560ff191617905561060061ff0019825416179055604051847f1b84372106d77c6daea0dda35bbc0229d10a83f58ec8990928849251936823413392806128e98787836151b7565b6000848152601d60205260408120546337dd3b5560e11b82526004869052602452604490fd5b34610487576000366003190112610487576020601854604051908152f35b34610487576060366003190112610487576040612d63612d51614d7a565b612d59614da6565b906024359061539e565b82519182526020820152f35b3461048757608036600319011261048757612d88614d7a565b612d90614d90565b9060443591612d9d61536e565b6001600160a01b031660008181526005602052604090205490919060ff1615611fb0576001600160a01b0316918215610536578015610aba576003612e4f9260405192612de984614f39565b8352602083016064358152604084019060008252604060608601936001855233600052600e6020528160002089600052602052816000206000918252602052209451855551600185015551600284015551151591019060ff801983541691151516179055565b33600052601060205260406000208160005260205260ff6040600020541615612e7457005b3360005260106020526040600020816000526020526040600020600160ff1982541617905533600052600f60205260406000208054600160401b811015612ee457612ec49160018201815561516a565b81546001600160a01b0360039290921b91821b191692901b919091179055005b634e487b7160e01b600052604160045260246000fd5b3461048757612f0836614e97565b82600052600a60205260406000205415612936576000838152600a6020526040812060028101549154336001600160a01b03938416811495939190911614908115613002575b6007019360ff855460081c1660088110156107e95780612fac5750159081612fa3575b50610814576000805160206159c5833981519152925b61050061ff0019825416179055610d21604051928392836151b7565b90501585612f71565b6000969592915060018103612fe6575015612fd8576000805160206159c5833981519152939450612f87565b6282b42960e81b8552600485fd5b8661300060449288633c68ce0b60e21b8452600452614e89565bfd5b3360009081526008602052604090205460ff169150612f4e565b34610487576000366003190112610487576000546001600160a01b0316330361081457613047615752565b61304f615752565b60ff19600354166003557f5db9ee0a495bf2e6ff9c91a7834c1ba4fdd244a5e8aa4e537bd38aeae4b073aa6020604051338152a1005b346104875760203660031901126104875760043560006101e06040516130aa81614f6f565b8281528260208201528260408201528260608201528260808201528260a0820152606060c08201528260e08201528261010082015282610120820152826101408201528261016082015282610180820152826101a0820152826101c0820152015280600052600a602052604060002054156109d857600052600a602052604060002060405161313881614f6f565b8154815260018060a01b03600183015416916020820192835260018060a01b036002820154166040830190815260018060a01b036003830154166060840190815260048301546080850190815260058401549160a086019283526006850193604051948560008254926131aa846150cd565b8084529360018116908115613385575060011461333e575b506131cf92500386614fa6565b60c08701948552600786015460ff81166131e881614e7f565b60e089015260ff8160081c169060088210156107e9576132b99760ff600d9281946101008d015260101c1615156101208b015260088101546101408b015260098101546101608b0152600a8101546101808b0152600b8101546101a08b0152600c8101546101c08b015201541615156101e08801526040519760208952875160208a015260018060a01b03905116604089015260018060a01b03905116606088015260018060a01b0390511660808701525160a08601525160c08501525161020060e0850152610220840190614e3e565b60e08201516132c781614e7f565b61010084015261010082015160088110156107e95783926101e09161012085015261012081015115156101408501526101408101516101608501526101608101516101808501526101808101516101a08501526101a08101516101c08501526101c081015182850152015115156102008301520390f35b90506000929192526020600020906000915b8183106133695750509060206131cf928201018b6131c2565b6020919350806001915483858c01015201910190918792613350565b9050602092506131cf94915060ff191682840152151560051b8201018b6131c2565b346104875760603660031901126104875760a060406133c4614d7a565b6133cc614d90565b6133d4614da6565b91600180861b0316600052600e6020528260002090600180861b031660005260205281600020600091600180861b031682526020522060ff600382015416908054906002600182015491015490801560001461344d57600019925b60405194151585526020850152604084015260608301526080820152f35b808210156134655761345f828261502f565b9261342f565b600061345f565b346104875761012036600319011261048757613486614d7a565b61348e614d90565b90606435916084356001600160401b038111610487576134b2903690600401614e11565b600260a49492943510156104875760c43590811515820361048757610104356134d961536e565b6001600160a01b03851660009081526005602052604090205460ff1615613912576001600160a01b03841615610536576001600160a01b03841633146108145760443515610aba57428711156138fc5782806138ea575b610aba5782806138d5575b610aba576001600954019586600955836000146138cd5761355e60e43542614fe2565b925b6040519861356d8a614f6f565b888a526001600160a01b0387811660208c01523360408c0152881660608b015260443560808b015260a08a01526135a381614fc7565b916135b16040519384614fa6565b81835236828201116104875781600092602092838601378301015260c08801526135dc60a435614e7f565b60a43560e08801526000610100880181905283151561012089015260e43561014089015261016088019190915261018087018190526101a0870191909152426101c0870190815260016101e08801818152878452600a60209081526040948590208a518155908a015192810180546001600160a01b03199081166001600160a01b0395861617909155948a0151600282018054871691851691909117905560608a01516003820180549096169316929092179093556080880151600482015560a0880151600582015560c08801518051919893929160068a01916001600160401b038211612ee4576136d8826136d285546150cd565b85615107565b602090601f83116001146138665761370992916000918361385b575b50508160011b916000199060031b1c19161790565b90555b6007880160e084015161371e81614e7f565b61372781614e7f565b60ff801983541691161781556101008401519060088210156107e957805461012086015162ff000090151560101b1661ff00600894851b1662ffff001990921691909117179055610140840151908901556101608301516009890155610180830151600a8901556101a090920151600b8801559051600c87015551600d909501805460ff191695151560ff16959095179094556020936137ee8460406000338152600b89526137d883838320615182565b6001600160a01b0386168152600c895220615182565b60405160443581526001600160a01b039093168584015261381060a435614e7f565b60a4356040840152151560608301526001600160a01b031690339083907f58ea791f2647abe75a6db2496cbf2eb241ddfb06b163c46ea71f8056f5ba640190608090a4604051908152f35b015190508c806136f4565b90601f1983169184600052816000209260005b8181106138b5575090846001959493921061389c575b505050811b01905561370c565b015160001960f88460031b161c191690558b808061388f565b92936020600181928786015181550195019301613879565b600092613560565b506138e160a435614e7f565b60a4351561353b565b5060e435158061353057508015613530565b63f135ddad60e01b600052600060045260246000fd5b6306439c6b60e01b60009081526001600160a01b038616600452602490fd5b3461048757600036600319011261048757336000818152601e6020526040812080546001600160a01b03191690557f6e02c29b2216164805cc4fe475ffed6c950186612cc8accee98111d9734da16c9080a2005b34610487576020366003190112610487576001600160a01b036139a6614d7a565b16600052602160205260406000206139bd42615602565b6000526020526020604060002054604051908152f35b346104875760c0366003190112610487576004356024356044356064356001600160401b03811161048757613a0c903690600401614e11565b926084359160a43594613a1d61536e565b86600052600a60205260406000205415613c5d5786600052600a60205260406000209460018060a01b03600287015416331460018060a01b03600054163314908115613c43575b159081613c3a575b5061081457600786019360ff855460081c1660088110156107e957613c255780613c1a575b5080613bf2575b5080613b1f575b50505460101c60ff16613ae9575b83600d830160ff198154169055604051904282527fcfb46e3252618832ca363a5a03adce3e5e51d11ca82ab5ef8502a8a6e5660b2160203393a3005b80613b14575b5081613afc575b81613aad565b600a8101548210610aba57600d916009820155613af6565b600882015583613aef565b60068501916001600160401b038211612ee457613b40826136d285546150cd565b600090601f8311600114613b8a579180613b759260ff969594600092613b7f5750508160011b916000199060031b1c19161790565b90555b9086613a9f565b013590508a806136f4565b8382526020822091601f198416815b818110613bda575091600193918560ff9897969410613bc0575b505050811b019055613b78565b0135600019600384901b60f8161c19169055898080613bb3565b91936020600181928787013581550195019201613b99565b42811115613c0557600586015587613a98565b8763f135ddad60e01b60005260045260246000fd5b600487015588613a91565b886351aee3e560e11b60005260045260246000fd5b90501589613a6c565b905033600052600860205260ff6040600020541690613a64565b86630bc917e760e31b60005260045260246000fd5b3461048757604036600319011261048757613c8b614d7a565b60243590613c9761534e565b613c9f61536e565b6001600160a01b031660008181526005602052604090205490919060ff1615611fb0578115611fb0578015610aba576040516370a0823160e01b815230600482015290602082602481865afa918215613df357600092613dff575b50613d3090604051906323b872dd60e01b6020830152336024830152306044830152606482015260648152611ac6608482614fa6565b6040516370a0823160e01b815230600482015290602082602481865afa8015613df357600090613dbf575b613d65925061502f565b3360005260046020526040600020826000526020526040600020613d8a828254614fe2565b90556040519081527f5548c837ab068cf56a2c2479df0882a4922fd203edb7517321831d95078c5f6260203392a36001600255005b506020823d602011613deb575b81613dd960209383614fa6565b8101031261048757613d659151613d5b565b3d9150613dcc565b6040513d6000823e3d90fd5b9091506020813d602011613e2d575b81613e1b60209383614fa6565b81010312610487575190613d30613cfa565b3d9150613e0e565b3461048757604036600319011261048757613e4e614d7a565b613e56614e02565b6000549091906001600160a01b03163303610814576001600160a01b03169081156105365760207faf6727e4a03c988fe9f467dba38fee8b128c7669f43fbe660ca6100d0181c4a29183600052601f8252613ec18160406000209060ff801983541691151516179055565b6040519015158152a2005b3461048757606036600319011261048757600435613ee8614e02565b906044356001600160401b03811161048757613f08903690600401614e11565b5050613f1261534e565b613f1a61536e565b6000546001600160a01b031633141580614091575b6108145780600052600a602052604060002054156109d85780600052600a6020526040600020600781019060ff825460081c1660088110156107e95760068103610c08575082600052600d6020526040600020906002820180549560ff8760081c16610995571561401e57505050909150613fac60185442614fe2565b82600052601960205260406000205561070061ff0019825416179055604051906020825260116020830152704348414c4c454e47455f50454e44494e4760781b60408301527f8b690c57d5bdde922fd66f41c686751715879388cbc5dc0aaeb3a84f45e50e3d60603393a36001600255005b61403b939560ff191690556001808060a01b03910154168361558f565b6040519060208252600660208301526514915195539160d21b60408301527f8b690c57d5bdde922fd66f41c686751715879388cbc5dc0aaeb3a84f45e50e3d60603393a3805461ff001916610400179055611ef8565b5033600052600860205260ff6040600020541615613f2f565b34610487576020366003190112610487576001600160a01b036140cb614d7a565b16600052601e602052602060018060a01b0360406000205416604051908152f35b34610487576060366003190112610487576004356001600160401b0381116104875761411c903690600401614dd2565b906024356001600160401b0381116104875761413c903690600401614dd2565b6044929192356001600160401b0381116104875761415e903690600401614dd2565b93909461416961534e565b6000546001600160a01b031633036108145760ff60035416156100825760005b8181106143c557868660005b8181106141a3576001600255005b806141b1600192848661504b565b3580600052600d602052604060002060028101805460ff8160081c1615806143b9575b6141e3575b5050505001614195565b60079284600052600a602052604060002092878060a01b0388850154169061010089808060a01b038554169401549461ffff19161790558582156000146142dc57600080808087865af1614235615085565b506142bb5750614266916040916000526004602052816000206000918a8060a01b0316825260205220918254614fe2565b90555b0161050061ff00198254161790556000805160206159c5833981519152606060405160208152601260208201527122b6b2b933b2b731bc9039b43aba3237bbb760711b6040820152a2848080806141d9565b9150916020600080516020615a2583398151915291604051908152a3614269565b60405163a9059cbb60e01b602082019081526001600160a01b03841660248301526044820186905292949193919260009182919061431d8160648101611ab8565b519082855af161432b615085565b8161438a575b501561435657506020600080516020615a2583398151915291604051908152a3614269565b6143839250604091936000526004602052816000206000918a8060a01b0316825260205220918254614fe2565b9055614269565b805180159250821561439f575b50508c614331565b6143b292506020809183010191016150b5565b8c80614397565b508583015415156141d4565b6143d86143d382848861504b565b615071565b6001600160a01b03811660005b8681106143f757505050600101614189565b806144086143d36001938a8a61504b565b836000526004602052604080600020600090858060a01b038416825260205220549081614438575b5050016143e5565b846000526004602052600060408082208290878060a01b0385168252602052205584848060a01b0382169182156000146144c557506000808080868b5af161447e615085565b506144a55790604091600052600460205281600020600091825260205220555b8b80614430565b90916020600080516020615a4583398151915291604051908152a361449e565b60405163a9059cbb60e01b602082019081526001600160a01b038a1660248301526044820186905293949293600092839290919083906145088160648101611ab8565b51925af1614514615085565b8161455d575b501561453e576020600080516020615a4583398151915291604051908152a361449e565b916040916000526004602052816000206000918252602052205561449e565b8051801592508215614572575b50508f61451a565b61458592506020809183010191016150b5565b8f8061456a565b34610487576040366003190112610487576145a5614d7a565b6024359060ff8216809203610487576000546001600160a01b03163303610814576001600160a01b03169081156105365760207febced5cb2a181c1ff03d23a03e496c57e1b8f6ae977db5c9af51c01d860ee4979183600052600582526040600020600160ff19825416179055836000526006825260406000208160ff19825416179055604051908152a2005b346104875760203660031901126104875760406001600160a01b03614655614d7a565b1680600052600560205260ff82600020541690600052600660205260ff826000205416825191151582526020820152f35b346104875760203660031901126104875761469f614d7a565b60006040516146ad81614f54565b5260018060a01b031660005260076020526020604060002060ff604051916146d483614f54565b54161515809152604051908152f35b34610487576146f136614dbc565b6146f961534e565b61470161536e565b81600052600a602052604060002054156107ff574211612659576000818152600a6020526040902060018101549091906001600160a01b031633036108145760078201805460ff811661475381614e7f565b6108145760ff9060081c1660088110156107e957806114c0575060ff600d8401541615612644576005830154421161262f57600460018060a01b0360038501541693015492336000526004602052604060002060018060a01b0382166000526020526040600020548481106148e55750336000526004602052604060002060018060a01b03821660005260205260406000206147f085825461502f565b9055604051906147ff82614f39565b815260208082018581526000604080850182815260608601838152888452600d865292829020955186546001600160a01b0319166001600160a01b0390911617865592516001860155915160029094018054915161ffff1990921660ff951515959095169490941790151560081b61ff001617909255825461ff001916610200179092555183815282917fbedc4e5ac6876307c4b4b5761039aa2ebce89052490a34e15cc655d9142ba0dc91a26040519182524260208301527fad182a582b60dfb698b15ddbe85c01fe3d9c2161ef730aa75fbc0688d7a0ec3d60403393a36001600255005b60405163861da4bd60e01b8152918291611b249187903360048601615005565b34610487576020366003190112610487576001600160a01b03614926614d7a565b1660005260146020526020604060002054604051908152f35b346104875760203660031901126104875760043561495b61534e565b61496361536e565b80600052600a602052604060002054156109d85780600052600a602052604060002090600282019160018060a01b03835416803303610814576007820191825460ff8160101c16156108145760ff9060081c1660088110156107e95780151580614d1f575b6109bf575060ff600d8201541615614d0a57600a810191825493600983019485541115614cf557600b8301968754804210614cdd575060058401544211614cc857600184015460038086015460048701546001600160a01b039384166000818152600e602090815260408083203384528252808320959097168083529490529490942092830154909b9199939792969293929060ff1615614cb7578b875410614c8f5760018701548015159081614ca0575b50614c8f57876000526004602052604060002060018060a01b038b166000526020526040600020548c8110614c6f5750918997959391614abf898e8e9f9a989661539e565b9890968860005260046020526040600020600160a01b600190038c16600052602052604060002082815490614af39161502f565b905585546001600160a01b039081166000908152600460209081526040808320938f168352929052208054614b29908c90614fe2565b9055600080546001600160a01b039081168252600460209081526040808420928f16845291905290208054614b5f908a90614fe2565b905560020190815490614b7191614fe2565b90558954614b7e9061503c565b92838b55600801544290614b9191614fe2565b9055541115600014986000805160206159e5833981519152602099600080516020615a05833981519152958b957fa86062b48bc987d84beb159736cd69ed4fb68975d818d2e59c278a9b85cc69f89d614c5d57805461ff00191661040017905584546001600160a01b0316847f64addbfb2188c024279ebc56031fd973e84d779567737453ff6725406fbf5cf5600080a35b604080519182526001600160a01b03929092166020820152a2546040519485526001600160a01b031693a454604051908152a26001600255005b805461ff001916610100179055614c23565b60405163861da4bd60e01b8152908190611b24908f8e8d60048601615005565b6317c0353760e21b60005260046000fd5b9050614cb08d60028a0154614fe2565b118d614a7a565b631938044560e21b60005260046000fd5b8663f135ddad60e01b60005260045260246000fd5b876302add76f60e01b60005260045260245260446000fd5b8563e86c30b160e01b60005260045260246000fd5b8363524a009f60e11b60005260045260246000fd5b5060018114156149c8565b3461048757602036600319011261048757600054600435906001600160a01b0316330361081457620151808110610aba57601855005b346104875760003660031901126104875780600060209252f35b600435906001600160a01b038216820361048757565b602435906001600160a01b038216820361048757565b604435906001600160a01b038216820361048757565b6040906003190112610487576004359060243590565b9181601f84011215610487578235916001600160401b038311610487576020808501948460051b01011161048757565b60243590811515820361048757565b9181601f84011215610487578235916001600160401b038311610487576020838186019501011161048757565b919082519283825260005b848110614e6a575050826000602080949584010152601f8019910116010190565b80602080928401015182828601015201614e49565b600211156107e957565b60088110156107e957602452565b9060406003198301126104875760043591602435906001600160401b03821161048757614ec691600401614e11565b9091565b602060408183019282815284518094520192019060005b818110614eee5750505090565b8251845260209384019390920191600101614ee1565b6060810194939092604092614f1881614e7f565b845260208401521515910152565b9190602083019260048210156107e95752565b608081019081106001600160401b03821117612ee457604052565b602081019081106001600160401b03821117612ee457604052565b61020081019081106001600160401b03821117612ee457604052565b606081019081106001600160401b03821117612ee457604052565b90601f801991011681019081106001600160401b03821117612ee457604052565b6001600160401b038111612ee457601f01601f191660200190565b91908201809211614fef57565b634e487b7160e01b600052601160045260246000fd5b6001600160a01b039182168152911660208201526040810191909152606081019190915260800190565b91908203918211614fef57565b6000198114614fef5760010190565b919081101561505b5760051b0190565b634e487b7160e01b600052603260045260246000fd5b356001600160a01b03811681036104875790565b3d156150b0573d9061509682614fc7565b916150a46040519384614fa6565b82523d6000602084013e565b606090565b90816020910312610487575180151581036104875790565b90600182811c921680156150fd575b60208310146150e757565b634e487b7160e01b600052602260045260246000fd5b91607f16916150dc565b919091601f8311615118575b505050565b81831161512457505050565b60005260206000206020601f830160051c9210615161575b81601f9101920160051c039060005b828110156151135760008282015560010161514b565b6000915061513c565b805482101561505b5760005260206000200190600090565b8054600160401b811015612ee45761519f9160018201815561516a565b819291549060031b91821b91600019901b1916179055565b90918060409360208452816020850152848401376000828201840152601f01601f1916010190565b6001600160a01b03166000818152601560205260409020600281015460ff169190829081615279575b506152525750158061523a575b61521f5750600090565b6001600160a01b031660009081526014602052604090205490565b50600160ff6011541661524c81614e7f565b14615215565b9050600052601660205260406000209060018060a01b031660005260205260406000205490565b546001915060ff1661528a81614e7f565b1438615208565b90606082019160ff601154166152a681614e7f565b81526012546020820152604060ff601354161515910152565b919091604060ff60026060840195828154166152da81614e7f565b8552600181015460208601520154161515910152565b6001600160a01b03166000908152601560205260409020600281015460ff16615324575060ff601154169060125490600090565b90600160ff83541692015490600190565b60048110156107e9576000526023602052604060002090565b600280541461535d5760028055565b633ee5aeb560e01b60005260046000fd5b60ff6003541661537a57565b63d93c066560e01b60005260046000fd5b81810292918115918404141715614fef57565b6001600160a01b03166000818152601560205260409020600281015493949360ff169182156154fc5760ff8254166153d581614e7f565b6154c1576127106153ea60018401548661538b565b049586935b8415806154b8575b61540c575b505050506154099161502f565b90565b929350909160009015615477575060ff8354169161542983614e7f565b600092615452575050506001015415155b615449575b82388080806153fc565b6001925061543f565b60409350825260166020528282209060018060a01b031682526020522054151561543a565b9150915060ff6011541661548a81614e7f565b61549a575050601254151561543a565b6001600160a01b03909116815260146020526040902054151561543a565b508515156153f7565b60008181526016602090815260408083206001600160a01b038a168452909152902054848111156154f75750835b9586936153ef565b6154ef565b600060ff6011541661550d81614e7f565b61556557506127106155216012548661538b565b045b81600052602260205261553d60ff60406000205416615335565b54801561555c57906127106155556154ef938361538b565b049061502f565b509586936153ef565b6001600160a01b0387168152601460205260409020548481111561558a575083615523565b615523565b906020600080516020615a2583398151915291600185015490600260018060a01b03875416960161010061ff001982541617905560018060a01b031694856000526004835260406000209060018060a01b0316600052825260406000206155f7828254614fe2565b9055604051908152a3565b620151809004620afa6c8101809111614fef5762023ab181049062023ab182029082159183810462023ab114831715614fef5761563e9161502f565b9161016d61566d6156616156566105b487048761502f565b618eac870490614fe2565b62023ab086049061502f565b04916101908202918204610190141715614fef5761568b9082614fe2565b918161016d0261016d81048303614fef578260646156b36156bb936156c19660021c90614fe2565b91049061502f565b9061502f565b80600502906005820403614fef5760028101809111614fef57609990046000600a82101561572c575060038101809111614fef575b600281111561571c575b606482029180830460641490151715614fef5761540991614fe2565b906157269061503c565b90615700565b600819820191821161573e57506156f6565b634e487b7160e01b81526011600452602490fd5b60ff600354161561575f57565b638dfc202b60e01b60005260046000fd5b6000546001600160a01b0316330361276657565b91909160ff6011541661579681614e7f565b8015938415615823576127106157ae6012548561538b565b049485925b83158061581a575b6157cc575b5050506154099161502f565b6157d891929350614e7f565b156157fb575060125415155b6157f2575b823880806157c0565b600192506157e9565b6001600160a01b031660009081526014602052604090205415156157e4565b508415156157bb565b6001600160a01b0381166000908152601460205260409020548381111561584f5750825b9485926157b3565b615847565b60206002929361589895600080516020615a0583398151915293806000805160206159e583398151915260018401549860018060a01b038554169a8b809b8361539e565b9990950161010061ff001982541617905560018060a01b03169889948560005260048852604060002060018060a01b038316600052885260406000206158df8b8254614fe2565b9055600080546001600160a01b03908116825260048a5260408083209185168352908a5290208054615912908390614fe2565b9055604080519182526001600160a01b03929092166020820152a27f6e3c6096795c8298a218b2cfb8bde42726ff7c9a3d27b4d3ba41ab7f74feb5fb84604051888152a36040519384526001600160a01b031692a4565b906000602091828151910182855af115613df3576000513d6159bb57506001600160a01b0381163b155b61599a5750565b635274afe760e01b60009081526001600160a01b0391909116600452602490fd5b6001141561599356fecd25ab8c3ec2731c81120b0f6206453bd5b52954eb4e795c271397ea2480a41fc5badd7dc963f2f7499c719e49cd103d43b1ddcd36393f1d9d79d4037cf15bae77178bcf8f3c991d39734824771477a42787fe19b60d5a29c0ec72de167699b380b577b4fc190ab86d963549e29f496afd079c5d81a2480d61217d4b5060a28c2717ead6b9200dd235aad468c9809ea400fe33ac69b5bfaa6d3e90fc922b639882780f2e938f650dd148e0a13b58989d8186579f497d779faae460eceecae9bba26469706673582212204d7ddb0b435b29ad6ba0f0b7e66ea6d8d2d85e9490d328fb58a57d5d2d255de864736f6c63430008210033","linkReferences":{}},"methodIdentifiers":{"BPS_DENOMINATOR()":"e1a45218","NATIVE_ETH()":"011e1167","VERSION()":"ffa1ad74","acceptOwnership()":"79ba5097","acknowledgeInvoice(uint256)":"ddaa8e84","addEmployee(address)":"f3cb8c31","addSupportedToken(address,uint8)":"1f87f6db","adminRefundToPayer(uint256,uint256)":"feecf3c6","adminReleaseToMerchant(uint256)":"e1a00149","approveFamilySender(address,bool)":"ff5a776e","approveRecurring(address,address,uint256,uint256)":"44eb4b9d","balanceOf(address,address)":"f7888aec","canWithdrawExternal(address)":"f4a36692","cancelInvoice(uint256,string)":"3f97833b","challengeDispute(uint256,string)":"77df9ce2","challengeWindowDuration()":"4bd167c9","claimPayment(uint256)":"c63fdcc7","confirmCompletion(uint256)":"94aeb613","confirmationWindow()":"bf5c4040","createInvoice(address,address,uint256,uint256,string,uint8,bool,uint256,uint256)":"37b50d48","defaultFeeConfig()":"9e2877b2","defaultFlatFeePerToken(address)":"0ef57bb9","depositETH()":"f6326fb3","depositToken(address,uint256)":"338b5dea","editInvoice(uint256,uint256,uint256,string,uint256,uint256)":"35647762","emergencyWithdrawAll(address[],address[],uint256[])":"21a1ae42","familyApproved(address,address)":"792af3db","finalizeResolution(uint256)":"f5489b7e","freeReceiveLimit()":"5e9721bd","getConfirmationDeadline(uint256)":"e783e514","getEffectiveFee(address)":"96ec4fe3","getEffectiveFlatFee(address,address)":"5e59a173","getEscrow(uint256)":"7d19e596","getExternalWallet(address)":"25c5f794","getInvoice(uint256)":"3a23cc0a","getMerchantInvoices(address)":"86c0909c","getMonthlyReceiveCount(address)":"368066d2","getPayerApprovedMerchants(address)":"a4e7c786","getPayerInvoices(address)":"8fbaf66f","getRecurringApproval(address,address,address)":"39c9aa3f","getTokenInfo(address)":"1f69565f","getUserConfig(address)":"16626ab9","getUserTier(address)":"e4d2620e","isEmployee(address)":"ea66543f","markComplete(uint256)":"67067ed6","maxChallengesPerInvoice()":"f3a14bcc","owner()":"8da5cb5b","pause()":"8456cb59","paused()":"5c975abb","payPostpaidInvoice(uint256,uint256)":"8093c12c","payPrepaidInvoice(uint256,uint256)":"158c5c2a","pendingOwner()":"e30c3978","previewFee(address,uint256,address)":"48671e35","raiseDispute(uint256,string)":"5aef573c","reclaimFunds(uint256)":"f9f161a8","registerExternalWallet(address)":"cc1b5a36","rejectInvoice(uint256,string)":"85fee741","removeEmployee(address)":"d108177a","removeExternalWallet()":"373a8009","removeSupportedToken(address)":"76319190","removeUserFee(address)":"e3d4f588","renounceOwnership()":"715018a6","resolveDispute(uint256,bool,string)":"2840662d","revokeRecurring(address,address)":"b96ba3b6","setChallengeWindow(uint256)":"01c1aa0d","setConfirmationWindow(uint256)":"9b54db4a","setDefaultFee(uint8,uint256)":"f45102d4","setDefaultFlatFee(address,uint256)":"8e7c6426","setExternalWithdrawPermission(address,bool)":"2c0fa210","setFreeReceiveLimit(uint256)":"a3a06671","setMaxChallenges(uint256)":"9cf127fa","setTierDiscount(uint8,uint256)":"b953b13d","setUserFee(address,uint8,uint256)":"f146be39","setUserFlatFee(address,address,uint256)":"8896c24d","setUserTier(address,uint8)":"a04725c6","supportedTokens(address)":"68c4ac26","tokenDecimals(address)":"8ee573ac","totalInvoices()":"5d7d538a","transferOwnership(address)":"f2fde38b","transferToUser(address,address,uint256,bool)":"8f38965f","triggerRecurring(uint256)":"042084f9","unpause()":"3f4ba83a","withdrawETH(uint256)":"f14210a6","withdrawToken(address,uint256)":"9e281a98"},"id":38}